:100000000C942A000C943C000C943C000C943C0092
:100010000C943C000C943C000C943C000C943C0070
:100020000C943C000C943E000C943C000C943C005E
:100030000C943C000C943C000C943C000C943C0050
:100040000C943C000C943C000C943C000C943C0040
:100050000C943C0011241FBECFE5D4E0DEBFCDBF21
:1000600010E0A0E6B0E001C01D92A236B107E1F7B2
:100070000E94A3000C94B8000C9400001F920F92F1
:100080000FB60F9211248F939F93AF93BF93EF936B
:10009000FF93DF93CF93CDB7DEB78091600090914F
:1000A00061000196909361008093600080916000F0
:1000B000909161008230910561F41092610010927C
:1000C0006000A5E3B0E0E5E3F0E0908181E08927FE
:1000D0008C93CF91DF91FF91EF91BF91AF919F9161
:1000E0008F910F900FBE0F901F901895DF93CF93B5
:1000F000CDB7DEB7AFE5B0E0EFE5F0E08081806836
:100100008C93E2E5F0E01082A3E5B0E0E3E5F0E0F7
:10011000808185608C93A3E5B0E0E3E5F0E0808129
:1001200080688C93A3E5B0E0E3E5F0E08081877B15
:100130008C93A9E5B0E0E9E5F0E0808181608C93E3
:10014000CF91DF910895DF93CF93CDB7DEB7A4E3CE
:10015000B0E0E4E3F0E0808181608C93A5E3B0E05F
:10016000E5E3F0E080818E7F8C930E947600FFCFE4
:04017000F894FFCF31
:00000001FF
