:100000000C942A000C9434000C9434000C943400AA
:100010000C9434000C9434000C9434000C94340090
:100020000C9434000C9434000C9434000C94340080
:100030000C9434000C9434000C9434000C94340070
:100040000C9434000C9434000C9434000C94340060
:100050000C94340011241FBECFE5D4E0DEBFCDBF29
:100060000E9436000C947E000C940000DF93CF9326
:1000700000D00F92CDB7DEB7AAE3B0E0EAE3F0E03C
:100080008081887F8C93A4E3B0E0E4E3F0E080819A
:1000900083608C93E9E3F0E08081A5E3B0E0E5E3E1
:1000A000F0E0808181608C93A5E3B0E0E5E3F0E0CF
:1000B00080818D7F8C93E9E3F0E08081A5E3B0E05F
:1000C000E5E3F0E0808182608C93A5E3B0E0E5E3B6
:1000D000F0E080818E7F8C93E9E3F0E08081A5E3FE
:1000E000B0E0E5E3F0E080818E7F8C93A5E3B0E0A3
:1000F000E5E3F0E080818D7F8C93CCCFF894FFCF47
:00000001FF
