:100000000C942A000C9434000C9434000C943400AA
:100010000C9434000C9434000C9434000C94340090
:100020000C9434000C9434000C9434000C94340080
:100030000C9434000C9434000C9434000C94340070
:100040000C9434000C9434000C9434000C94340060
:100050000C94340011241FBECFE5D4E0DEBFCDBF29
:100060000E9452000C9459000C940000DF93CF932F
:10007000CDB7DEB7E2E5F0E01082ECE5F0E080E835
:100080008083A3E5B0E0E3E5F0E080818A668C93AD
:10009000A7E3B0E0E7E3F0E0808188608C93CF9144
:1000A000DF910895DF93CF93CDB7DEB70E9436007E
:0600B000FFCFF894FFCF22
:00000001FF
