:100000000C942A000C9434000C9434000C943400AA
:100010000C9434000C9434000C9434000C94340090
:100020000C9434000C9434000C9434000C94340080
:100030000C9434000C9434000C9434000C94340070
:100040000C9434000C9434000C9434000C9436005E
:100050000C94340011241FBECFE5D4E0DEBFCDBF29
:100060000E9473000C948F000C9400001F920F925A
:100070000FB60F9211248F939F93AF93BF93EF937B
:10008000FF93DF93CF93CDB7DEB7A5E3B0E0E5E311
:10009000F0E0908181E089278C93CF91DF91FF91EF
:1000A000EF91BF91AF919F918F910F900FBE0F90E5
:1000B0001F901895DF93CF93CDB7DEB7E2E5F0E060
:1000C0001082ECE5F0E080E88083A9E5B0E0E9E5A6
:1000D000F0E0808182608C93E3E5F0E08DE880833E
:1000E000CF91DF910895DF93CF93CDB7DEB7A4E32F
:1000F000B0E0E4E3F0E0808181608C93A5E3B0E0C0
:10010000E5E3F0E080818E7F8C93AFE5B0E0EFE532
:10011000F0E0808180688C930E945A00FFCFF894B1
:02012000FFCF0F
:00000001FF
