:100000000C942A000C9447000C9447000C94470071
:100010000C9447000C9447000C9447000C94470044
:100020000C9447000C9447000C9447000C94470034
:100030000C9447000C9447000C9447000C94470024
:100040000C9447000C9447000C9447000C94470014
:100050000C94470011241FBECFE5D4E0DEBFCDBF16
:1000600010E0A0E6B0E0E2E0F2E002C005900D9200
:10007000A837B107D9F710E0A8E7B0E001C01D929A
:10008000AA37B107E1F70E94D9000C94FF000C9445
:100090000000DF93CF93CDB7DEB728970FB6F89463
:1000A000DEBF0FBECDBF1A8219821E821D8257C0CD
:1000B000EAE3F0E08D819E819C012C5F3F4F81E05F
:1000C00090E002C0880F991F2A95E2F78083ABE386
:1000D000B0E0EBE3F0E08081482F8D819E819C01B0
:1000E0002C5F3F4F81E090E0022E02C0880F991FE5
:1000F0000A94E2F7809584238C931C821B8225C08E
:10010000E9E3F0E08081882F90E00B8002C09595B4
:1001100087950A94E2F781709070009789F42B819B
:100120003C81C901880F991F280F391F8D819E813D
:10013000820F931F9C012F5F3F4F38872F8317C07B
:100140008B819C8101969C838B838B819C818430E5
:100150009105B4F28D819E8101969E838D838D8160
:100160009E81833091050CF4A3CF18861F828F8166
:10017000988528960FB6F894DEBF0FBECDBFCF91FD
:10018000DF910895DF93CF9300D0CDB7DEB79A8388
:100190008983A5E3B0E0E5E3F0E08081982F907FCC
:1001A00089818F70892B8C930F900F90CF91DF9165
:1001B0000895DF93CF93CDB7DEB7E4E3F0E08FE0AF
:1001C0008083E5E3F0E010820E944900909379007B
:1001D0008093780080917800909179009923A4F31E
:1001E00080917800909179008A3091056CF7E5E371
:1001F000F0E080917800909179008083E5CFF894C9
:02020000FFCF2E
:1002020001000400070000000200050008000000D1
:080212000300060009000000D2
:00000001FF
