:100000000C942A000C9434000C9434000C943400AA
:100010000C9434000C9434000C9434000C94340090
:100020000C9434000C9434000C9434000C94340080
:100030000C9434000C9434000C9434000C94340070
:100040000C9434000C9434000C9434000C94340060
:100050000C94340011241FBECFE5D4E0DEBFCDBF29
:100060000E9436000C9491000C940000DF93CF9313
:100070000F92CDB7DEB71982A1E3B0E0E1E3F0E083
:1000800080818F608C93AAE3B0E0EAE3F0E08081A6
:100090008C7F8C93E9E3F0E08081882F90E0817081
:1000A00090708823E9F08981893020F489818F5FFD
:1000B000898301C01982A2E3B0E0E2E3F0E080812D
:1000C000982F907F89818F70892B8C93E9E3F0E0E2
:1000D0008081882F90E0817090708823B9F7DACF03
:1000E000E9E3F0E08081882F90E0827090700097C3
:1000F00089F2898181508983A2E3B0E0E2E3F0E0F4
:100100008081982F907F89818F70892B8C93E9E370
:10011000F0E08081882F90E0827090700097B9F7AE
:06012000B9CFF894FFCFF7
:00000001FF
