:100000000C942A000C943C000C943C000C943C0092
:100010000C943C000C943C000C943C000C943C0070
:100020000C943C000C943C000C943C000C943C0060
:100030000C943C000C943C000C943C000C943C0050
:100040000C943C000C943C000C943E000C943C003E
:100050000C943C0011241FBECFE5D4E0DEBFCDBF21
:1000600010E0A0E6B0E001C01D92A136B107E1F7B3
:100070000E949C000C94AA000C9400001F920F9206
:100080000FB60F9211248F939F93AF93BF93EF936B
:10009000FF93DF93CF93CDB7DEB7809160008930B7
:1000A00019F41092600005C0809160008F5F80930A
:1000B0006000A5E3B0E0E5E3F0E08081982F907F59
:1000C000809160008F70892B8C93CF91DF91FF918D
:1000D000EF91BF91AF919F918F910F900FBE0F90B5
:1000E0001F901895DF93CF93CDB7DEB7AFE5B0E0A3
:1000F000EFE5F0E080818F778C93A7E3B0E0E7E352
:10010000F0E080818B7F8C93ABE5B0E0EBE5F0E035
:10011000808180628C93A4E5B0E0E4E5F0E080812A
:1001200080648C93AFE5B0E0EFE5F0E0808180681B
:100130008C93CF91DF910895DF93CF93CDB7DEB746
:100140000E947200E4E3F0E08FE08083E5E3F0E0FA
:080150001082FFCFF894FFCFED
:00000001FF
