:100000000C942A000C9434000C9434000C943400AA
:100010000C9434000C9434000C9434000C94340090
:100020000C9434000C9434000C9434000C94340080
:100030000C9434000C9434000C9434000C94340070
:100040000C9434000C9434000C9434000C94340060
:100050000C94340011241FBECFE5D4E0DEBFCDBF29
:100060000E9400010C940E010C940000DF93CF93CA
:10007000CDB7DEB7ABE2B0E0EBE2F0E080818260CA
:100080008C93EAE2F0E088E18083A0E4B0E0E0E471
:10009000F0E0808186688C93E9E2F0E08CE0808378
:1000A000E0E4F0E08CE08083CF91DF910895DF936E
:1000B000CF930F92CDB7DEB78983ECE2F0E0898170
:1000C0008083EBE2F0E08081882F90E08074907074
:1000D0000097B9F3ABE2B0E0EBE2F0E0808180643E
:1000E0008C930F90CF91DF910895DF93CF93CDB78D
:1000F000DEB7ABE2B0E0EBE2F0E0808180688C93A9
:10010000ABE2B0E0EBE2F0E080818F7B8C93EBE23E
:10011000F0E080818823DCF7ECE2F0E08081CF9191
:10012000DF910895DF93CF9300D000D0CDB7DEB735
:100130009C838B831A8219820FC029813A818B811B
:100140009C81FC01E20FF31F80810E94570089818E
:100150009A8101969A83898329813A818B819C8136
:10016000FC01E20FF31F8081882339F70F900F9075
:100170000F900F90CF91DF9108950F931F93DF930E
:10018000CF9300D00F92CDB7DEB79B838A831982BD
:100190008981282F30E08A819B818C01020F131FF7
:1001A0000E947500F80180830FC089818F5F898369
:1001B0008981282F30E08A819B818C01020F131FD7
:1001C0000E947500F80180838981282F30E08A81A0
:1001D0009B81FC01E20FF31F8081833231F789811B
:1001E000282F30E08A819B81FC01E20FF31F1082EF
:1001F0000F900F900F90CF91DF911F910F91089565
:10020000DF93CF930F92CDB7DEB70E9436000E94E6
:100210007500898389810E945700F9CFF894FFCF38
:00000001FF
